{
  "_format": "hh-sol-artifact-1",
  "contractName": "AVAXGods",
  "sourceName": "contracts/AvaxGods.sol",
  "abi": [
    {
      "inputs": [
        {
          "internalType": "string",
          "name": "_metadataURI",
          "type": "string"
        }
      ],
      "stateMutability": "nonpayable",
      "type": "constructor"
    },
    {
      "anonymous": false,
      "inputs": [
        {
          "indexed": true,
          "internalType": "address",
          "name": "account",
          "type": "address"
        },
        {
          "indexed": true,
          "internalType": "address",
          "name": "operator",
          "type": "address"
        },
        {
          "indexed": false,
          "internalType": "bool",
          "name": "approved",
          "type": "bool"
        }
      ],
      "name": "ApprovalForAll",
      "type": "event"
    },
    {
      "anonymous": false,
      "inputs": [
        {
          "indexed": false,
          "internalType": "string",
          "name": "battleName",
          "type": "string"
        },
        {
          "indexed": true,
          "internalType": "address",
          "name": "winner",
          "type": "address"
        },
        {
          "indexed": true,
          "internalType": "address",
          "name": "loser",
          "type": "address"
        }
      ],
      "name": "BattleEnded",
      "type": "event"
    },
    {
      "anonymous": false,
      "inputs": [
        {
          "indexed": true,
          "internalType": "string",
          "name": "battleName",
          "type": "string"
        },
        {
          "indexed": true,
          "internalType": "bool",
          "name": "isFirstMove",
          "type": "bool"
        }
      ],
      "name": "BattleMove",
      "type": "event"
    },
    {
      "anonymous": false,
      "inputs": [
        {
          "indexed": false,
          "internalType": "string",
          "name": "battleName",
          "type": "string"
        },
        {
          "indexed": true,
          "internalType": "address",
          "name": "player1",
          "type": "address"
        },
        {
          "indexed": true,
          "internalType": "address",
          "name": "player2",
          "type": "address"
        }
      ],
      "name": "NewBattle",
      "type": "event"
    },
    {
      "anonymous": false,
      "inputs": [
        {
          "indexed": true,
          "internalType": "address",
          "name": "owner",
          "type": "address"
        },
        {
          "indexed": false,
          "internalType": "uint256",
          "name": "id",
          "type": "uint256"
        },
        {
          "indexed": false,
          "internalType": "uint256",
          "name": "attackStrength",
          "type": "uint256"
        },
        {
          "indexed": false,
          "internalType": "uint256",
          "name": "defenseStrength",
          "type": "uint256"
        }
      ],
      "name": "NewGameToken",
      "type": "event"
    },
    {
      "anonymous": false,
      "inputs": [
        {
          "indexed": true,
          "internalType": "address",
          "name": "owner",
          "type": "address"
        },
        {
          "indexed": false,
          "internalType": "string",
          "name": "name",
          "type": "string"
        }
      ],
      "name": "NewPlayer",
      "type": "event"
    },
    {
      "anonymous": false,
      "inputs": [
        {
          "indexed": true,
          "internalType": "address",
          "name": "previousOwner",
          "type": "address"
        },
        {
          "indexed": true,
          "internalType": "address",
          "name": "newOwner",
          "type": "address"
        }
      ],
      "name": "OwnershipTransferred",
      "type": "event"
    },
    {
      "anonymous": false,
      "inputs": [
        {
          "indexed": false,
          "internalType": "address[2]",
          "name": "damagedPlayers",
          "type": "address[2]"
        }
      ],
      "name": "RoundEnded",
      "type": "event"
    },
    {
      "anonymous": false,
      "inputs": [
        {
          "indexed": true,
          "internalType": "address",
          "name": "operator",
          "type": "address"
        },
        {
          "indexed": true,
          "internalType": "address",
          "name": "from",
          "type": "address"
        },
        {
          "indexed": true,
          "internalType": "address",
          "name": "to",
          "type": "address"
        },
        {
          "indexed": false,
          "internalType": "uint256[]",
          "name": "ids",
          "type": "uint256[]"
        },
        {
          "indexed": false,
          "internalType": "uint256[]",
          "name": "values",
          "type": "uint256[]"
        }
      ],
      "name": "TransferBatch",
      "type": "event"
    },
    {
      "anonymous": false,
      "inputs": [
        {
          "indexed": true,
          "internalType": "address",
          "name": "operator",
          "type": "address"
        },
        {
          "indexed": true,
          "internalType": "address",
          "name": "from",
          "type": "address"
        },
        {
          "indexed": true,
          "internalType": "address",
          "name": "to",
          "type": "address"
        },
        {
          "indexed": false,
          "internalType": "uint256",
          "name": "id",
          "type": "uint256"
        },
        {
          "indexed": false,
          "internalType": "uint256",
          "name": "value",
          "type": "uint256"
        }
      ],
      "name": "TransferSingle",
      "type": "event"
    },
    {
      "anonymous": false,
      "inputs": [
        {
          "indexed": false,
          "internalType": "string",
          "name": "value",
          "type": "string"
        },
        {
          "indexed": true,
          "internalType": "uint256",
          "name": "id",
          "type": "uint256"
        }
      ],
      "name": "URI",
      "type": "event"
    },
    {
      "inputs": [],
      "name": "CELESTION",
      "outputs": [
        {
          "internalType": "uint256",
          "name": "",
          "type": "uint256"
        }
      ],
      "stateMutability": "view",
      "type": "function"
    },
    {
      "inputs": [],
      "name": "DEVIL",
      "outputs": [
        {
          "internalType": "uint256",
          "name": "",
          "type": "uint256"
        }
      ],
      "stateMutability": "view",
      "type": "function"
    },
    {
      "inputs": [],
      "name": "FIREBIRD",
      "outputs": [
        {
          "internalType": "uint256",
          "name": "",
          "type": "uint256"
        }
      ],
      "stateMutability": "view",
      "type": "function"
    },
    {
      "inputs": [],
      "name": "GRIFFIN",
      "outputs": [
        {
          "internalType": "uint256",
          "name": "",
          "type": "uint256"
        }
      ],
      "stateMutability": "view",
      "type": "function"
    },
    {
      "inputs": [],
      "name": "KAMO",
      "outputs": [
        {
          "internalType": "uint256",
          "name": "",
          "type": "uint256"
        }
      ],
      "stateMutability": "view",
      "type": "function"
    },
    {
      "inputs": [],
      "name": "KUKULKAN",
      "outputs": [
        {
          "internalType": "uint256",
          "name": "",
          "type": "uint256"
        }
      ],
      "stateMutability": "view",
      "type": "function"
    },
    {
      "inputs": [],
      "name": "MAX_ATTACK_DEFEND_STRENGTH",
      "outputs": [
        {
          "internalType": "uint256",
          "name": "",
          "type": "uint256"
        }
      ],
      "stateMutability": "view",
      "type": "function"
    },
    {
      "inputs": [
        {
          "internalType": "uint8",
          "name": "_choice",
          "type": "uint8"
        },
        {
          "internalType": "string",
          "name": "_battleName",
          "type": "string"
        }
      ],
      "name": "attackOrDefendChoice",
      "outputs": [],
      "stateMutability": "nonpayable",
      "type": "function"
    },
    {
      "inputs": [
        {
          "internalType": "address",
          "name": "account",
          "type": "address"
        },
        {
          "internalType": "uint256",
          "name": "id",
          "type": "uint256"
        }
      ],
      "name": "balanceOf",
      "outputs": [
        {
          "internalType": "uint256",
          "name": "",
          "type": "uint256"
        }
      ],
      "stateMutability": "view",
      "type": "function"
    },
    {
      "inputs": [
        {
          "internalType": "address[]",
          "name": "accounts",
          "type": "address[]"
        },
        {
          "internalType": "uint256[]",
          "name": "ids",
          "type": "uint256[]"
        }
      ],
      "name": "balanceOfBatch",
      "outputs": [
        {
          "internalType": "uint256[]",
          "name": "",
          "type": "uint256[]"
        }
      ],
      "stateMutability": "view",
      "type": "function"
    },
    {
      "inputs": [],
      "name": "baseURI",
      "outputs": [
        {
          "internalType": "string",
          "name": "",
          "type": "string"
        }
      ],
      "stateMutability": "view",
      "type": "function"
    },
    {
      "inputs": [
        {
          "internalType": "string",
          "name": "",
          "type": "string"
        }
      ],
      "name": "battleInfo",
      "outputs": [
        {
          "internalType": "uint256",
          "name": "",
          "type": "uint256"
        }
      ],
      "stateMutability": "view",
      "type": "function"
    },
    {
      "inputs": [
        {
          "internalType": "uint256",
          "name": "",
          "type": "uint256"
        }
      ],
      "name": "battles",
      "outputs": [
        {
          "internalType": "enum AVAXGods.BattleStatus",
          "name": "battleStatus",
          "type": "uint8"
        },
        {
          "internalType": "bytes32",
          "name": "battleHash",
          "type": "bytes32"
        },
        {
          "internalType": "string",
          "name": "name",
          "type": "string"
        },
        {
          "internalType": "address",
          "name": "winner",
          "type": "address"
        }
      ],
      "stateMutability": "view",
      "type": "function"
    },
    {
      "inputs": [
        {
          "internalType": "string",
          "name": "_name",
          "type": "string"
        }
      ],
      "name": "createBattle",
      "outputs": [
        {
          "components": [
            {
              "internalType": "enum AVAXGods.BattleStatus",
              "name": "battleStatus",
              "type": "uint8"
            },
            {
              "internalType": "bytes32",
              "name": "battleHash",
              "type": "bytes32"
            },
            {
              "internalType": "string",
              "name": "name",
              "type": "string"
            },
            {
              "internalType": "address[2]",
              "name": "players",
              "type": "address[2]"
            },
            {
              "internalType": "uint8[2]",
              "name": "moves",
              "type": "uint8[2]"
            },
            {
              "internalType": "address",
              "name": "winner",
              "type": "address"
            }
          ],
          "internalType": "struct AVAXGods.Battle",
          "name": "",
          "type": "tuple"
        }
      ],
      "stateMutability": "nonpayable",
      "type": "function"
    },
    {
      "inputs": [
        {
          "internalType": "string",
          "name": "_name",
          "type": "string"
        }
      ],
      "name": "createRandomGameToken",
      "outputs": [],
      "stateMutability": "nonpayable",
      "type": "function"
    },
    {
      "inputs": [
        {
          "internalType": "uint256",
          "name": "id",
          "type": "uint256"
        }
      ],
      "name": "exists",
      "outputs": [
        {
          "internalType": "bool",
          "name": "",
          "type": "bool"
        }
      ],
      "stateMutability": "view",
      "type": "function"
    },
    {
      "inputs": [
        {
          "internalType": "uint256",
          "name": "",
          "type": "uint256"
        }
      ],
      "name": "gameTokens",
      "outputs": [
        {
          "internalType": "string",
          "name": "name",
          "type": "string"
        },
        {
          "internalType": "uint256",
          "name": "id",
          "type": "uint256"
        },
        {
          "internalType": "uint256",
          "name": "attackStrength",
          "type": "uint256"
        },
        {
          "internalType": "uint256",
          "name": "defenseStrength",
          "type": "uint256"
        }
      ],
      "stateMutability": "view",
      "type": "function"
    },
    {
      "inputs": [],
      "name": "getAllBattles",
      "outputs": [
        {
          "components": [
            {
              "internalType": "enum AVAXGods.BattleStatus",
              "name": "battleStatus",
              "type": "uint8"
            },
            {
              "internalType": "bytes32",
              "name": "battleHash",
              "type": "bytes32"
            },
            {
              "internalType": "string",
              "name": "name",
              "type": "string"
            },
            {
              "internalType": "address[2]",
              "name": "players",
              "type": "address[2]"
            },
            {
              "internalType": "uint8[2]",
              "name": "moves",
              "type": "uint8[2]"
            },
            {
              "internalType": "address",
              "name": "winner",
              "type": "address"
            }
          ],
          "internalType": "struct AVAXGods.Battle[]",
          "name": "",
          "type": "tuple[]"
        }
      ],
      "stateMutability": "view",
      "type": "function"
    },
    {
      "inputs": [],
      "name": "getAllPlayerTokens",
      "outputs": [
        {
          "components": [
            {
              "internalType": "string",
              "name": "name",
              "type": "string"
            },
            {
              "internalType": "uint256",
              "name": "id",
              "type": "uint256"
            },
            {
              "internalType": "uint256",
              "name": "attackStrength",
              "type": "uint256"
            },
            {
              "internalType": "uint256",
              "name": "defenseStrength",
              "type": "uint256"
            }
          ],
          "internalType": "struct AVAXGods.GameToken[]",
          "name": "",
          "type": "tuple[]"
        }
      ],
      "stateMutability": "view",
      "type": "function"
    },
    {
      "inputs": [],
      "name": "getAllPlayers",
      "outputs": [
        {
          "components": [
            {
              "internalType": "address",
              "name": "playerAddress",
              "type": "address"
            },
            {
              "internalType": "string",
              "name": "playerName",
              "type": "string"
            },
            {
              "internalType": "uint256",
              "name": "playerMana",
              "type": "uint256"
            },
            {
              "internalType": "uint256",
              "name": "playerHealth",
              "type": "uint256"
            },
            {
              "internalType": "bool",
              "name": "inBattle",
              "type": "bool"
            }
          ],
          "internalType": "struct AVAXGods.Player[]",
          "name": "",
          "type": "tuple[]"
        }
      ],
      "stateMutability": "view",
      "type": "function"
    },
    {
      "inputs": [
        {
          "internalType": "string",
          "name": "_name",
          "type": "string"
        }
      ],
      "name": "getBattle",
      "outputs": [
        {
          "components": [
            {
              "internalType": "enum AVAXGods.BattleStatus",
              "name": "battleStatus",
              "type": "uint8"
            },
            {
              "internalType": "bytes32",
              "name": "battleHash",
              "type": "bytes32"
            },
            {
              "internalType": "string",
              "name": "name",
              "type": "string"
            },
            {
              "internalType": "address[2]",
              "name": "players",
              "type": "address[2]"
            },
            {
              "internalType": "uint8[2]",
              "name": "moves",
              "type": "uint8[2]"
            },
            {
              "internalType": "address",
              "name": "winner",
              "type": "address"
            }
          ],
          "internalType": "struct AVAXGods.Battle",
          "name": "",
          "type": "tuple"
        }
      ],
      "stateMutability": "view",
      "type": "function"
    },
    {
      "inputs": [
        {
          "internalType": "string",
          "name": "_battleName",
          "type": "string"
        }
      ],
      "name": "getBattleMoves",
      "outputs": [
        {
          "internalType": "uint256",
          "name": "P1Move",
          "type": "uint256"
        },
        {
          "internalType": "uint256",
          "name": "P2Move",
          "type": "uint256"
        }
      ],
      "stateMutability": "view",
      "type": "function"
    },
    {
      "inputs": [
        {
          "internalType": "address",
          "name": "addr",
          "type": "address"
        }
      ],
      "name": "getPlayer",
      "outputs": [
        {
          "components": [
            {
              "internalType": "address",
              "name": "playerAddress",
              "type": "address"
            },
            {
              "internalType": "string",
              "name": "playerName",
              "type": "string"
            },
            {
              "internalType": "uint256",
              "name": "playerMana",
              "type": "uint256"
            },
            {
              "internalType": "uint256",
              "name": "playerHealth",
              "type": "uint256"
            },
            {
              "internalType": "bool",
              "name": "inBattle",
              "type": "bool"
            }
          ],
          "internalType": "struct AVAXGods.Player",
          "name": "",
          "type": "tuple"
        }
      ],
      "stateMutability": "view",
      "type": "function"
    },
    {
      "inputs": [
        {
          "internalType": "address",
          "name": "addr",
          "type": "address"
        }
      ],
      "name": "getPlayerToken",
      "outputs": [
        {
          "components": [
            {
              "internalType": "string",
              "name": "name",
              "type": "string"
            },
            {
              "internalType": "uint256",
              "name": "id",
              "type": "uint256"
            },
            {
              "internalType": "uint256",
              "name": "attackStrength",
              "type": "uint256"
            },
            {
              "internalType": "uint256",
              "name": "defenseStrength",
              "type": "uint256"
            }
          ],
          "internalType": "struct AVAXGods.GameToken",
          "name": "",
          "type": "tuple"
        }
      ],
      "stateMutability": "view",
      "type": "function"
    },
    {
      "inputs": [],
      "name": "getTotalSupply",
      "outputs": [
        {
          "internalType": "uint256",
          "name": "",
          "type": "uint256"
        }
      ],
      "stateMutability": "view",
      "type": "function"
    },
    {
      "inputs": [],
      "name": "getlength",
      "outputs": [
        {
          "internalType": "uint256",
          "name": "",
          "type": "uint256"
        }
      ],
      "stateMutability": "view",
      "type": "function"
    },
    {
      "inputs": [
        {
          "internalType": "address",
          "name": "account",
          "type": "address"
        },
        {
          "internalType": "address",
          "name": "operator",
          "type": "address"
        }
      ],
      "name": "isApprovedForAll",
      "outputs": [
        {
          "internalType": "bool",
          "name": "",
          "type": "bool"
        }
      ],
      "stateMutability": "view",
      "type": "function"
    },
    {
      "inputs": [
        {
          "internalType": "string",
          "name": "_name",
          "type": "string"
        }
      ],
      "name": "isBattle",
      "outputs": [
        {
          "internalType": "bool",
          "name": "",
          "type": "bool"
        }
      ],
      "stateMutability": "view",
      "type": "function"
    },
    {
      "inputs": [
        {
          "internalType": "address",
          "name": "addr",
          "type": "address"
        }
      ],
      "name": "isPlayer",
      "outputs": [
        {
          "internalType": "bool",
          "name": "",
          "type": "bool"
        }
      ],
      "stateMutability": "view",
      "type": "function"
    },
    {
      "inputs": [
        {
          "internalType": "address",
          "name": "addr",
          "type": "address"
        }
      ],
      "name": "isPlayerToken",
      "outputs": [
        {
          "internalType": "bool",
          "name": "",
          "type": "bool"
        }
      ],
      "stateMutability": "view",
      "type": "function"
    },
    {
      "inputs": [
        {
          "internalType": "string",
          "name": "_name",
          "type": "string"
        }
      ],
      "name": "joinBattle",
      "outputs": [
        {
          "components": [
            {
              "internalType": "enum AVAXGods.BattleStatus",
              "name": "battleStatus",
              "type": "uint8"
            },
            {
              "internalType": "bytes32",
              "name": "battleHash",
              "type": "bytes32"
            },
            {
              "internalType": "string",
              "name": "name",
              "type": "string"
            },
            {
              "internalType": "address[2]",
              "name": "players",
              "type": "address[2]"
            },
            {
              "internalType": "uint8[2]",
              "name": "moves",
              "type": "uint8[2]"
            },
            {
              "internalType": "address",
              "name": "winner",
              "type": "address"
            }
          ],
          "internalType": "struct AVAXGods.Battle",
          "name": "",
          "type": "tuple"
        }
      ],
      "stateMutability": "nonpayable",
      "type": "function"
    },
    {
      "inputs": [],
      "name": "owner",
      "outputs": [
        {
          "internalType": "address",
          "name": "",
          "type": "address"
        }
      ],
      "stateMutability": "view",
      "type": "function"
    },
    {
      "inputs": [
        {
          "internalType": "address",
          "name": "",
          "type": "address"
        }
      ],
      "name": "playerInfo",
      "outputs": [
        {
          "internalType": "uint256",
          "name": "",
          "type": "uint256"
        }
      ],
      "stateMutability": "view",
      "type": "function"
    },
    {
      "inputs": [
        {
          "internalType": "address",
          "name": "",
          "type": "address"
        }
      ],
      "name": "playerTokenInfo",
      "outputs": [
        {
          "internalType": "uint256",
          "name": "",
          "type": "uint256"
        }
      ],
      "stateMutability": "view",
      "type": "function"
    },
    {
      "inputs": [
        {
          "internalType": "uint256",
          "name": "",
          "type": "uint256"
        }
      ],
      "name": "players",
      "outputs": [
        {
          "internalType": "address",
          "name": "playerAddress",
          "type": "address"
        },
        {
          "internalType": "string",
          "name": "playerName",
          "type": "string"
        },
        {
          "internalType": "uint256",
          "name": "playerMana",
          "type": "uint256"
        },
        {
          "internalType": "uint256",
          "name": "playerHealth",
          "type": "uint256"
        },
        {
          "internalType": "bool",
          "name": "inBattle",
          "type": "bool"
        }
      ],
      "stateMutability": "view",
      "type": "function"
    },
    {
      "inputs": [
        {
          "internalType": "string",
          "name": "_battleName",
          "type": "string"
        }
      ],
      "name": "quitBattle",
      "outputs": [],
      "stateMutability": "nonpayable",
      "type": "function"
    },
    {
      "inputs": [
        {
          "internalType": "string",
          "name": "_name",
          "type": "string"
        },
        {
          "internalType": "string",
          "name": "_gameTokenName",
          "type": "string"
        }
      ],
      "name": "registerPlayer",
      "outputs": [],
      "stateMutability": "nonpayable",
      "type": "function"
    },
    {
      "inputs": [],
      "name": "renounceOwnership",
      "outputs": [],
      "stateMutability": "nonpayable",
      "type": "function"
    },
    {
      "inputs": [
        {
          "internalType": "address",
          "name": "from",
          "type": "address"
        },
        {
          "internalType": "address",
          "name": "to",
          "type": "address"
        },
        {
          "internalType": "uint256[]",
          "name": "ids",
          "type": "uint256[]"
        },
        {
          "internalType": "uint256[]",
          "name": "amounts",
          "type": "uint256[]"
        },
        {
          "internalType": "bytes",
          "name": "data",
          "type": "bytes"
        }
      ],
      "name": "safeBatchTransferFrom",
      "outputs": [],
      "stateMutability": "nonpayable",
      "type": "function"
    },
    {
      "inputs": [
        {
          "internalType": "address",
          "name": "from",
          "type": "address"
        },
        {
          "internalType": "address",
          "name": "to",
          "type": "address"
        },
        {
          "internalType": "uint256",
          "name": "id",
          "type": "uint256"
        },
        {
          "internalType": "uint256",
          "name": "amount",
          "type": "uint256"
        },
        {
          "internalType": "bytes",
          "name": "data",
          "type": "bytes"
        }
      ],
      "name": "safeTransferFrom",
      "outputs": [],
      "stateMutability": "nonpayable",
      "type": "function"
    },
    {
      "inputs": [
        {
          "internalType": "address",
          "name": "operator",
          "type": "address"
        },
        {
          "internalType": "bool",
          "name": "approved",
          "type": "bool"
        }
      ],
      "name": "setApprovalForAll",
      "outputs": [],
      "stateMutability": "nonpayable",
      "type": "function"
    },
    {
      "inputs": [
        {
          "internalType": "string",
          "name": "newuri",
          "type": "string"
        }
      ],
      "name": "setURI",
      "outputs": [],
      "stateMutability": "nonpayable",
      "type": "function"
    },
    {
      "inputs": [
        {
          "internalType": "bytes4",
          "name": "interfaceId",
          "type": "bytes4"
        }
      ],
      "name": "supportsInterface",
      "outputs": [
        {
          "internalType": "bool",
          "name": "",
          "type": "bool"
        }
      ],
      "stateMutability": "view",
      "type": "function"
    },
    {
      "inputs": [
        {
          "internalType": "uint256",
          "name": "tokenId",
          "type": "uint256"
        }
      ],
      "name": "tokenURI",
      "outputs": [
        {
          "internalType": "string",
          "name": "",
          "type": "string"
        }
      ],
      "stateMutability": "view",
      "type": "function"
    },
    {
      "inputs": [],
      "name": "totalSupply",
      "outputs": [
        {
          "internalType": "uint256",
          "name": "",
          "type": "uint256"
        }
      ],
      "stateMutability": "view",
      "type": "function"
    },
    {
      "inputs": [
        {
          "internalType": "uint256",
          "name": "id",
          "type": "uint256"
        }
      ],
      "name": "totalSupply",
      "outputs": [
        {
          "internalType": "uint256",
          "name": "",
          "type": "uint256"
        }
      ],
      "stateMutability": "view",
      "type": "function"
    },
    {
      "inputs": [
        {
          "internalType": "address",
          "name": "newOwner",
          "type": "address"
        }
      ],
      "name": "transferOwnership",
      "outputs": [],
      "stateMutability": "nonpayable",
      "type": "function"
    },
    {
      "inputs": [
        {
          "internalType": "uint256",
          "name": "",
          "type": "uint256"
        }
      ],
      "name": "uri",
      "outputs": [
        {
          "internalType": "string",
          "name": "",
          "type": "string"
        }
      ],
      "stateMutability": "view",
      "type": "function"
    }
  ],
  "bytecode": "0x60806040523462000ab4576200501a803803806200001d8162000af9565b92833981019060208183031262000ab4578051906001600160401b03821162000ab4570181601f8201121562000ab4578051906001600160401b0382116200073c5762000074601f8301601f191660200162000af9565b928284526020838301011162000ab45760005b82811062000a9e57600083850160200152835184906001600160401b0381116200073c57600254600181811c9116801562000a93575b60208210146200071b57601f811162000a51575b50806020601f8211600114620009d957600091620009cd575b508160011b916000199060031b1c1916176002555b60038054336001600160a01b0319821681179092556040516001600160a01b03909116907f8be0079c531659141344cd1fd0a4f28419497f9722a3daafe3b4186f6b6457e090600090a380516001600160401b0381116200073c57600554600181811c91168015620009c2575b60208210146200071b57601f81116200098b575b50602091601f8211600114620009215791819260009262000915575b50508160011b916000199060031b1c1916176005555b604051608081016001600160401b038111828210176200073c57604052620001d962000ad9565b6000815281526020810190600082526040810160008152606082019060008252600b54680100000000000000008110156200073c576001810180600b558110156200076857600b600052925180519460029490941b7f0175b7a638427703f0dbe7bb9bbf987a2551717b34e79f33b5b1008d1fa01db90193906001600160401b0386116200073c578454600181811c911680156200090a575b60208210146200071b57601f8111620008d4575b50602090601f871160011462000865579580916003969760009262000859575b50508160011b9160001990871b1c19161785555b5160018501555160028401555191015560405160a081016001600160401b038111828210176200073c5760405260008152620002f562000ad9565b600081526020820152600060408201526000606082015260006080820152600a5490680100000000000000008210156200073c576001820180600a558210156200076857600a6000528051600583027fc65a7bb8d6351c1cf70c95a316cc6a92839c986682d98bc35f958f4883f9d2a890810180546001600160a01b0319166001600160a01b039390931692909217909155602082015180519093906001600160401b0381116200073c5760016005830284010154600181811c911680156200084e575b60208210146200071b57601f811162000810575b506020601f82116001146200078a57918160059260049594608097986000926200077e575b50508160011b916000199060031b1c1916176001838302850101555b60408601516002838302850101556060860151600383830285010155020101910151151560ff801983541691161790556200044862000ab9565b60008152600060208201526200045d62000ab9565b60008082526020820152604051916001600160401b0360c08401908111908411176200073c5760c0830160405260008352600060208401526200049f62000ad9565b60008152604084015260608301526080820152600060a0820152600c5490680100000000000000008210156200073c576001820180600c558210156200076857600c60005280517fdf6966c971051c3d54ec59162606531493a51404a002842f56009d7e5cf4a8c79060038110156200075257600784028201805460ff191660ff929092169190911781556020830151600182015560408301518051600290920191906001600160401b0382116200073c57825490600182811c9216801562000731575b60208310146200071b5781601f849311620006d9575b50602090601f83116001146200066e5760009262000662575b50508160011b916000199060031b1c19161790555b606082015160005b600281106200063c575050608082015192600093845b6002811062000614576007830284016005810187905560a086015160069190910180546001600160a01b0319166001600160a01b03929092169190911790556040516144c1908162000b398239f35b9094602060019160ff885116908460031b60ff811b9283911b169119161796019101620005c5565b81516001600160a01b0316600360078702850183010155602090910190600101620005af565b01519050868062000592565b6000858152602081209350601f198516905b818110620006c05750908460019594939210620006a6575b505050811b019055620005a7565b015160001960f88460031b161c1916905586808062000698565b9293602060018192878601518155019501930162000680565b6200070990856000526020600020601f850160051c8101916020861062000710575b601f0160051c019062000b1f565b8762000579565b9091508190620006fb565b634e487b7160e01b600052602260045260246000fd5b91607f169162000563565b634e487b7160e01b600052604160045260246000fd5b634e487b7160e01b600052602160045260246000fd5b634e487b7160e01b600052603260045260246000fd5b015190508880620003f2565b60016005840285010160005260206000209560005b601f1984168110620007f7575082608096976004969593600193600596601f19811610620007dd575b505050811b016001838302850101556200040e565b015160001960f88460031b161c19169055888080620007c8565b828201518855600190970196602092830192016200079f565b62000847906001600585028601016000526020600020601f840160051c810191602085106200071057601f0160051c019062000b1f565b85620003cd565b90607f1690620003b9565b015190508780620002a6565b90601f198716918660005260206000209260005b818110620008bb57509160019391896003999a9410620008a2575b505050811b018555620002ba565b015160001983891b60f8161c1916905587808062000894565b9293602060018192878601518155019501930162000879565b6200090390866000526020600020601f890160051c81019160208a106200071057601f0160051c019062000b1f565b8662000286565b90607f169062000272565b0151905082806200019c565b601f19821692600560005260206000209160005b858110620009725750836001951062000958575b505050811b01600555620001b2565b015160001960f88460031b161c1916905582808062000949565b9192602060018192868501518155019401920162000935565b620009bb9060056000526020600020601f840160051c810191602085106200071057601f0160051c019062000b1f565b8262000180565b90607f16906200016c565b905082015183620000ea565b6002600090815260008051602062004ffa8339815191529250601f198416905b81811062000a385750908360019493921062000a1e575b5050811b01600255620000ff565b84015160001960f88460031b161c19169055838062000a10565b91926020600181928689015181550194019201620009f9565b600260005262000a8c9060008051602062004ffa833981519152601f840160051c810191602085106200071057601f0160051c019062000b1f565b82620000d1565b90607f1690620000bd565b8060208092840101518282870101520162000087565b600080fd5b60408051919082016001600160401b038111838210176200073c57604052565b60405190602082016001600160401b038111838210176200073c57604052565b6040519190601f01601f191682016001600160401b038111838210176200073c57604052565b81811062000b2b575050565b6000815560010162000b1f56fe6080604052600436101561001257600080fd5b60003560e01c8062fdd58e14612e2f578063015a379214612d4657806301ffc9a714612cd857806302fe530514612bb15780630677aa4e14612b9557806309c95e1014612b725780630daea2cd14612b565780630e89341c14612aa557806310898e4c14612a6d5780631107ae3d14612a3357806316801d17146129e957806318160ddd146109ee5780632711162e146129af5780632ca04522146128325780632eb2c2d6146123f15780633835e2b5146123955780634b1146911461235b5780634e1273f4146121bd5780634f558e791461218f5780635c12cd4b146121575780635c93fc3d1461206e578063606d2e9614611fe75780636c0360eb14611f05578063703730a514611ee9578063715018a614611e87578063845f433b14611b965780638da5cb5b14611b6d578063996d7bea14611a9a5780639b09cc8714611a445780639e4ecd1114611a285780639ec40aa3146119f0578063a16d3598146119d2578063a1b4f57c146117b8578063a22cb465146116cb578063ba27495614610af4578063bd85b03914610ac8578063bf034b6914610a39578063bf103a4d14610a0c578063c4e41b22146109ee578063c87b56dd146108e2578063d2198cc5146108c6578063de96cefc146108aa578063e985e9c514610854578063efa1c4821461076b578063f1da73391461074f578063f242432a14610386578063f2fde38b146102ba5763f71d96cb1461022b57600080fd5b346102b55760203660031901126102b557600435600a548110156102b557600a6000526005602060002091020160018060a01b0381541661026e60018301613211565b9160028101549060ff60046003830154920154169061029f604051958695865260a0602087015260a0860190612ead565b9260408501526060840152151560808301520390f35b600080fd5b346102b55760203660031901126102b5576102d3612e5e565b6102db6132f5565b6001600160a01b0390811690811561033257600380546001600160a01b03198116841790915560405160009390929091167f8be0079c531659141344cd1fd0a4f28419497f9722a3daafe3b4186f6b6457e08484a3f35b60405162461bcd60e51b815260206004820152602660248201527f4f776e61626c653a206e6577206f776e657220697320746865207a65726f206160448201526564647265737360d01b6064820152608490fd5b346102b55760a03660031901126102b55761039f612e5e565b6103a7612e74565b90608480356001600160401b0381116102b5576103c8903690600401612fae565b6001600160a01b03919083831633148015610724575b6103e790613418565b828516156103f5811561347b565b61040060443561368e565b61040b60643561368e565b91858716156106c4575b610604575b5050604435600052602094600086526040600020848616600052865260406000205461044a6064358210156134d5565b60443560005260008752604060002085871660005287526064359003604060002055604435600052600086526040600020848216600052865260406000206104956064358254613534565b905560405160443581526064358782015284821690858716907fc3d58168c5ae7397731d063d5bbf3d657854427343f4c083240f7aacaa2d0f6260403392a4803b6104dd575b005b60a06000610527958895604051978896879586938563f23a6e6160e01b9d8e87523360048801521660248601526044356044860152606435606486015284015260a4830190612ead565b0393165af1600091816105d5575b506105ab5750506001906105476135aa565b6308c379a014610576575b5061055957005b60405162461bcd60e51b81528061057260048201613639565b0390fd5b61057e6135c8565b908161058a5750610552565b61057260405192839262461bcd60e51b845260048401526024830190612ead565b6001600160e01b0319161490506104db5760405162461bcd60e51b81528061057260048201613561565b6105f6919250843d86116105fd575b6105ee8183612f72565b810190613541565b9084610535565b503d6105e4565b92959194909360005b84518110156106b5576106208186613404565b519061062c8188613404565b518260005260046020526040600020548181106106605761065b936000526004602052036040600020556133d2565b61060d565b60405162461bcd60e51b815260206004820152602860248201527f455243313135353a206275726e20616d6f756e74206578636565647320746f74604482015267616c537570706c7960c01b60648201528b90fd5b5093509390949150858061041a565b959260009794919592975b865181101561071657806106e6610711928b613404565b516106f1828a613404565b51600052600460205261070a6040600020918254613534565b90556133d2565b6106cf565b509295969194909396610415565b5082841660005260016020526040600020336000526020526103e760ff6040600020541690506103de565b346102b55760003660031901126102b557602060405160048152f35b346102b55760003660031901126102b557600a54610788816130b1565b906107966040519283612f72565b808252600a6000908152602091828401917fc65a7bb8d6351c1cf70c95a316cc6a92839c986682d98bc35f958f4883f9d2a8835b8383106108315750505050604051918083019381845251809452604083019360408160051b85010192916000955b8287106108055785850386f35b909192938280610821600193603f198a8203018652885161315a565b96019201960195929190926107f8565b600586600192610843859a999a6136d9565b8152019201920191909594956107ca565b346102b55760403660031901126102b55761086d612e5e565b610875612e74565b9060018060a01b03809116600052600160205260406000209116600052602052602060ff604060002054166040519015158152f35b346102b55760003660031901126102b557602060405160018152f35b346102b55760003660031901126102b557602060405160008152f35b346102b5576020806003193601126102b5576108ff6004356143a8565b90604051918260009160055492610915846131d7565b6001948686821691826000146109c9575050600114610987575b509264173539b7b760d91b6006939285602f60f81b61096f975261095b825180938a8785019101612e8a565b019182015203601919810185520183612f72565b610983604051928284938452830190612ead565b0390f35b8591506005600052816000206000905b8282106109b157505083010164173539b7b760d91b61092f565b80548983018501528895508793909101908601610997565b60ff1916818701528215159092028501909101915064173539b7b760d91b905061092f565b346102b55760003660031901126102b5576020600654604051908152f35b346102b55760203660031901126102b5576020610a2f610a2a612e5e565b6137c9565b6040519015158152f35b346102b55760203660031901126102b557600435600b548110156102b557600b600052610ab49060021b7f0175b7a638427703f0dbe7bb9bbf987a2551717b34e79f33b5b1008d1fa01db901610a8e81613211565b906001810154906003600282015491015490604051948594608086526080860190612ead565b926020850152604084015260608301520390f35b346102b55760203660031901126102b55760043560005260046020526020604060002054604051908152f35b346102b55760403660031901126102b55760043560ff81168091036102b55760249081356001600160401b0381116102b557610b34903690600401612fae565b90610b3e82613a07565b8051600381101561164257600103611657578051600381101561164257600214611603576060810190815160018060a01b0381511633149081156115ec575b50156115a857608001518151516001600160a01b031633036115a0576000905b600260ff8316101561149c57611fe060ff9260051b1601511661155c5751516001600160a01b031633036115555760005b6001821480801561154b575b1561150757156115005760036040610bf133613729565b015110155b156114b15760405191610c2784519360208181880196610c1781838a612e8a565b81016009815203019020546131a2565b5090600260ff8416101561149c57601f6005610c5d93600786831c160101931683549060031b60ff811b9283911b169119161790565b90556080610c6a83613a07565b0180515160ff166114935760ff60005b166002039060ff821161121657516020015160ff166114895760ff8060005b1691160360ff81116111365760ff16906001820361147e57610cc96001915b604051809281928751928391612e8a565b8101039020901515907f54b82b77e7ae55a8e6c9e89deba70c7191dea2a3b08ae647b380e9f981d6a0f86000604051a315610d0057005b610d0990613a07565b606081015180516001600160a01b03163314908115611467575b501561140f57608081015160ff815116151590816113fe575b50156113b05760018060a01b0360608201515116600052600760205260406000205460ff608083015151166060610d7e60018060a01b03828601515116613729565b0151606084015151604090610d9b906001600160a01b0316613848565b015160608581015151919291610db9906001600160a01b0316613848565b01519260405194610dc986612f3c565b8552602085015260408401526060830152608082015260018060a01b0360206060840151015116600052600760205260406000205460ff602060808501510151166060610e2460018060a01b03602083880151015116613729565b0151606085015160200151604090610e44906001600160a01b0316613848565b015160608681015160200151919291610e65906001600160a01b0316613848565b01519260405194610e7586612f3c565b8552602085015260408401526060830152608082015260405191610e9883612f06565b6000835260006020840152826020820151600181148080916113a2575b15611160575050506060810151604083015111611085575050606082015151610ee89083906001600160a01b0316614245565b505b604051906000825b600282106110655750505060407fc6bf860cbc15f7020f73993a671f01bbb1831a8a7a12c126ca735eb632e7577591a160006080820151526000602060808301510152610f438160408101516141db565b606081015151610f5b906001600160a01b0316613fbf565b60018060a01b03606083015151166000526008602052806002610f826040600020546132b7565b500155600a03600a81116110505760018060a01b036060830151511660005260086020526003610fb66040600020546132b7565b500155606081015160200151610fd4906001600160a01b0316613fbf565b60018060a01b03602060608401510151166000526008602052806002610ffe6040600020546132b7565b500155600a0391600a831161103c57506020606060018060a01b03920151015116600052600860205260036110376040600020546132b7565b500155005b634e487b7160e01b60009081526011600452fd5b82634e487b7160e01b60005260116004526000fd5b82516001600160a01b031681526020928301926001929092019101610ef2565b6060820151604082015181106110bb575050506060820151602001516110b59083906001600160a01b0316614245565b50610eea565b6002929350906110fc916110de60036110d484516132d6565b5001918254613fb2565b905560608101516110f460036110d487516132d6565b9055516132d6565b50018054600219928382019291831161114b5760029261111d9255516132d6565b5001805491820191821161113657556060810151610eea565b83634e487b7160e01b60005260116004526000fd5b85634e487b7160e01b60005260116004526000fd5b80611394575b1561124e575061117f6040840151608085015190613534565b6060830151909290918383106111ae575050506060840151516110b592508491506001600160a01b0316614245565b6002936111e1938060808801511160001461122b5750505060408401515b60036111d886516132d6565b500155516132d6565b5001805460021981019290831161114b576002926112009255516132d6565b5001805490600382018092116112165755610eea565b84634e487b7160e01b60005260116004526000fd5b61123491613fb2565b6060880151602001516001600160a01b03169091526111cc565b6002148080611386575b1561132257506112716040830151608084015190613534565b6060840151909290918383106112a3575050506060840151602001516110b592508491506001600160a01b0316614245565b6002936112cd93806080850151116000146113025750505060408101515b60036111d883516132d6565b50018054916003830180931161114b576002926112eb9255516132d6565b500180546002198101919082116112165755610eea565b61130b91613fb2565b6060880151516001600160a01b03169091526112c1565b905080611378575b611336575b5050610eea565b611342600291516132d6565b50018054916003830180931161114b576002926113609255516132d6565b5001805490600382018092116112165755838061132f565b50600260208301511461132a565b506001602085015114611258565b506002602085015114611166565b506001602086015114610eb5565b60405162461bcd60e51b8152602060048201526021818401527f506c6179657273207374696c6c206e65656420746f206d616b652061206d6f766044820152606560f81b6064820152608490fd5b60ff91506020015116151583610d3c565b60405162461bcd60e51b815260206004820152602b818401527f4f6e6c7920706c617965727320696e207468697320626174746c652063616e2060448201526a6d616b652061206d6f766560a81b6064820152608490fd5b602001516001600160a01b03163314905083610d23565b610cc9600091610cb8565b60ff806001610c99565b60ff6001610c7a565b85634e487b7160e01b60005260326004526000fd5b60405162461bcd60e51b8152602060048201526022818601527f4d616e61206e6f742073756666696369656e7420666f722061747461636b696e604482015261672160f01b6064820152608490fd5b6001610bf6565b60405162461bcd60e51b815260206004820152601f818701527f43686f6963652073686f756c64206265206569746865722031206f72203221006044820152606490fd5b5060028314610bda565b6001610bce565b60405162461bcd60e51b815260206004820152601d818601527f596f75206861766520616c7265616479206d6164652061206d6f7665210000006044820152606490fd5b600190610b9d565b60405162461bcd60e51b815260206004820152601a818701527f596f7520617265206e6f7420696e207468697320626174746c650000000000006044820152606490fd5b602001516001600160a01b03163314905086610b7d565b60405162461bcd60e51b8152602060048201526018818601527710985d1d1b19481a185cc8185b1c9958591e48195b99195960421b6044820152606490fd5b84634e487b7160e01b60005260216004526000fd5b60405162461bcd60e51b8152602060048201526041818601527f426174746c65206e6f7420737461727465642e20506c656173652074656c6c2060448201527f616e6f7468657220706c6179657220746f206a6f696e2074686520626174746c6064820152606560f81b608482015260a490fd5b346102b55760403660031901126102b5576116e4612e5e565b60243590811515908183036102b5576001600160a01b031691338314611761576117339033600052600160205260406000208460005260205260406000209060ff801983541691151516179055565b6040519081527f17307eab39ab6107e8899845ad3d59bd9653f200f220920489ca2b5937696c3160203392a3005b60405162461bcd60e51b815260206004820152602960248201527f455243313135353a2073657474696e6720617070726f76616c20737461747573604482015268103337b91039b2b63360b91b6064820152608490fd5b346102b5576020806003193601126102b5576004356001600160401b0381116102b5576117e9903690600401612fae565b906117f26138f8565b506117fc82613a07565b91825160038110156119bc5761197d576060830180515190916001600160a01b03918216331461192e57608061183133613729565b01516118f5578461184b91600182523386865101526141db565b80825151166000526007835260046118676040600020546132d6565b500160ff19906001828254161790558184845101511660005260078452600160046118966040600020546132d6565b5001918254161790556040840151915151167f024187b16c217a79f8d8e6252b542ec6e278fa91304acd9cfd866f2bbf00bd08604051848152806118de339587830190612ead565b0390a3610983604051928284938452830190613002565b60405162461bcd60e51b8152600481018590526011602482015270416c726561647920696e20626174746c6560781b6044820152606490fd5b60405162461bcd60e51b815260048101859052602160248201527f4f6e6c7920706c617965722074776f2063616e206a6f696e206120626174746c6044820152606560f81b6064820152608490fd5b60405162461bcd60e51b8152600481018390526017602482015276426174746c6520616c726561647920737461727465642160481b6044820152606490fd5b634e487b7160e01b600052602160045260246000fd5b346102b55760003660031901126102b5576020600c54604051908152f35b346102b55760203660031901126102b5576004356001600160401b0381116102b557611a236104db913690600401612fae565b613ae3565b346102b55760003660031901126102b557602060405160058152f35b346102b55760203660031901126102b5576004356001600160401b0381116102b5576080611a80611a7b6040933690600401612fae565b613a07565b015160ff6020818351169201511682519182526020820152f35b346102b55760203660031901126102b5576004356001600160401b0381116102b557611a7b611acd913690600401612fae565b6060810190815160018060a01b0390818151163314908115611b5d575b5015611b18578251518116338103611b0c575060206104db9351015116614245565b90506104db9250614245565b60405162461bcd60e51b815260206004820152601b60248201527f596f7520617265206e6f7420696e207468697320626174746c652100000000006044820152606490fd5b6020015182163314905084611aea565b346102b55760003660031901126102b5576003546040516001600160a01b039091168152602090f35b346102b55760403660031901126102b5576001600160401b036004358181116102b557611bc7903690600401612fae565b6024358281116102b557611bdf903690600401612fae565b611be8336136b3565b611e4657600a54604051611bfb81612f3c565b33815260209485820185815260408301600a8152606084019160198352608085019360008552600160401b871015611e1a5760018701600a55611c3d876132d6565b969096611e30575186546001600160a01b0319166001600160a01b03919091161786559051805160018701929091908211611e1a57611c7c83546131d7565b8b601f8211611dde575b50508a90601f8311600114611d425794611d0c94611d1f989484600495611d329d9a957f81ef79d1cda814a60c0fc60792e648a06d9c6bae67176346d1cc8b63030bfccd9f9d9a600092611d37575b50508160011b916000199060031b1c19161790555b51600285015551600384015551151591019060ff801983541691151516179055565b3360005260078752604060002055613ae3565b6040519182918583523395830190612ead565b0390a2005b015190503880611cd5565b60008481528c8120929190601f198516908e5b828210611dc657505094600185611d329d9a957f81ef79d1cda814a60c0fc60792e648a06d9c6bae67176346d1cc8b63030bfccd9f9d9a95611d0c9a95600499611d1f9f9b10611dad575b505050811b019055611cea565b015160001960f88460031b161c19169055388080611da0565b80600186978294978701518155019601940190611d55565b611e0991856000528160002090601f860160051c8201928610611e10575b601f0160051c0190613a80565b8b8b611c86565b9091508190611dfc565b634e487b7160e01b600052604160045260246000fd5b634e487b7160e01b600052600060045260246000fd5b60405162461bcd60e51b8152602060048201526019602482015278141b185e595c88185b1c9958591e481c9959da5cdd195c9959603a1b6044820152606490fd5b346102b55760003660031901126102b557611ea06132f5565b600380546001600160a01b0319811690915560405160009182906001600160a01b03167f8be0079c531659141344cd1fd0a4f28419497f9722a3daafe3b4186f6b6457e08284a3f35b346102b55760003660031901126102b557602060405160028152f35b346102b55760003660031901126102b557604051600090600554611f28816131d7565b808352600191808316908115611fbf5750600114611f65575b61098383611f5181870382612f72565b604051918291602083526020830190612ead565b6005600090815260209450917f036b6384b5eca791c62761152d0c79bb0604c104a5fb6f4eb0703f3154bb3db05b828410611fac57505050810190910190611f5181611f41565b8054858501870152928501928101611f93565b6109839550611f5193506020915091849260ff191682840152151560051b8201019350611f41565b346102b55760203660031901126102b557600435600c548110156102b55761204e90600c6000526007602060002091020160ff8154169061206460018201549161203360028201613211565b90600660018060a01b03910154169260405195868096612ff5565b6020850152608060408501526080840190612ead565b9060608301520390f35b346102b55760003660031901126102b557600c5461208b816130b1565b906120996040519283612f72565b808252600c6000908152602091828401917fdf6966c971051c3d54ec59162606531493a51404a002842f56009d7e5cf4a8c7835b8383106121345750505050604051918083019381845251809452604083019360408160051b85010192916000955b8287106121085785850386f35b909192938280612124600193603f198a82030186528851613002565b96019201960195929190926120fb565b600786600192612146859a999a613947565b8152019201920191909594956120cd565b346102b55760203660031901126102b55761098361217b612176612e5e565b613729565b60405191829160208352602083019061315a565b346102b55760203660031901126102b557600435600052600460205260206040600020541515604051908152f35b346102b55760403660031901126102b5576004356001600160401b038082116102b557366023830112156102b5578160040135906121fa826130b1565b926122086040519485612f72565b82845260209260248486019160051b830101913683116102b557602401905b82821061233c575050506024359081116102b5576122499036906004016130c8565b82518151036122e55782519261225e846130b1565b9361226c6040519586612f72565b80855261227b601f19916130b1565b01368486013760005b81518110156122ce576122c9906122b96001600160a01b036122a68386613404565b51166122b28387613404565b519061334d565b6122c38288613404565b526133d2565b612284565b505050610983604051928284938452830190613126565b60405162461bcd60e51b815260048101839052602960248201527f455243313135353a206163636f756e747320616e6420696473206c656e677468604482015268040dad2e6dac2e8c6d60bb1b6064820152608490fd5b81356001600160a01b03811681036102b5578152908401908401612227565b346102b55760203660031901126102b5576001600160a01b0361237c612e5e565b1660005260076020526020604060002054604051908152f35b346102b55760203660031901126102b5576004356001600160401b0381116102b5576123de60206123cb81933690600401612fae565b8160405193828580945193849201612e8a565b8101600981520301902054604051908152f35b346102b55760031960a0368201126102b55761240b612e5e565b90612414612e74565b906001600160401b03604480358281116102b5576124369036906004016130c8565b9060649081358481116102b5576124519036906004016130c8565b9460849485359081116102b55761246c903690600401612fae565b6001600160a01b0398891698909190338a148015612809575b61248e90613418565b85518851036127b65788169586156124a6811561347b565b8a15612773575b6126ae575b60005b865181101561254557806124cc6125409289613404565b518c6124d8838d613404565b5191806000528260209260008452604060002081600052845260406000205490612504838310156134d5565b8360005260008552604060002090600052845203604060002055600052600081526040600020908b6000525261070a6040600020918254613534565b6124b5565b5090919293968998878a604051604081527f4a39dc06d4c0dbc64b70af90fd698a233a518aa5d07e595d983b8c0526c8f7fb612584604083018c613126565b91808303602082015280612599339489613126565b0390a43b6125a357005b604051978896879663bc197c8160e01b9b8c89523360048a01526024890152870160a0905260a487016125d591613126565b908487830301908701526125e891613126565b9184830301908401526125fa91612ead565b03815a602094600091f16000918161268e575b50612666575050600161261e6135aa565b6308c379a01461262f575b61055957005b6126376135c8565b806126425750612629565b60405162461bcd60e51b815260206004820152908190610572906024830190612ead565b6001600160e01b031916146104db5760405162461bcd60e51b81528061057260048201613561565b6126a791925060203d81116105fd576105ee8183612f72565b908361260d565b96949398929590979160005b8551811015612764576126cd8187613404565b516126d88289613404565b519080600052602060048152604060002054918383106127115761270c9493929160049160005252036040600020556133d2565b6126ba565b508b9067616c537570706c7960c01b8f7f455243313135353a206275726e20616d6f756e74206578636565647320746f748e6040519462461bcd60e51b8652600486015260286024860152840152820152fd5b509197909592989394966124b2565b98959996949392919060005b8b518110156127a757808c6106f18261279b6127a2958f613404565b5192613404565b61277f565b509091929394969995986124ad565b60405162461bcd60e51b815260206004820152602860248201527f455243313135353a2069647320616e6420616d6f756e7473206c656e6774682081860152670dad2e6dac2e8c6d60c31b818701528790fd5b5089600052600160205260406000203360005260205261248e60ff604060002054169050612485565b346102b5576020806003193601126102b5576004356001600160401b0381116102b557612863903690600401612fae565b9061286c6138f8565b5061287e612879336136b3565b613a97565b612887826138c7565b6129725780604051818101908282526128b5816128a76040820188612ead565b03601f198101835282612f72565b519020926040516128c581612f06565b338152600083820152604051906128db82612f06565b60008252600084830152604051956128f287612f21565b600087528487015282604087015260608601526080850152600060a085015261292d600c549283928160405193828580945193849201612e8a565b8101600981520301902055600160401b811015611e1a578261295882600161295e9401600c556131a2565b9061400b565b610983604051928284938452830190613002565b6064906040519062461bcd60e51b825260048201526016602482015275426174746c6520616c7265616479206578697374732160501b6044820152fd5b346102b55760203660031901126102b5576001600160a01b036129d0612e5e565b1660005260086020526020604060002054604051908152f35b346102b55760203660031901126102b5576004356001600160401b0381116102b557612a1f611a7b610983923690600401612fae565b604051918291602083526020830190613002565b346102b55760203660031901126102b5576004356001600160401b0381116102b557610a2f612a686020923690600401612fae565b6138c7565b346102b55760203660031901126102b557610983612a91612a8c612e5e565b613848565b604051918291602083526020830190612ed2565b346102b5576020806003193601126102b5576040519060008260025491612acb836131d7565b92838352600190858282169182600014612b36575050600114612af6575b5061096f92500383612f72565b849150600260005281600020906000915b858310612b1e57505061096f935082010185612ae9565b80548389018501528794508693909201918101612b07565b60ff19168582015261096f95151560051b8501019250879150612ae99050565b346102b55760003660031901126102b5576020604051600a8152f35b346102b55760203660031901126102b5576020610a2f612b90612e5e565b6136b3565b346102b55760003660031901126102b557602060405160038152f35b346102b5576020806003193601126102b5576001600160401b036004358181116102b557612be3903690600401612fae565b91612bec6132f5565b8251918211611e1a57612c006002546131d7565b601f8111612ca7575b5080601f8311600114612c4357508192600092612c38575b50508160011b916000199060031b1c191617600255005b015190508280612c21565b90601f19831693600260005282600020926000905b868210612c8f5750508360019510612c76575b505050811b01600255005b015160001960f88460031b161c19169055828080612c6b565b80600185968294968601518155019501930190612c58565b612cd290600260005282600020601f850160051c810191848610611e1057601f0160051c0190613a80565b83612c09565b346102b55760203660031901126102b55760043563ffffffff60e01b81168091036102b557602090636cdb3d1360e11b8114908115612d35575b8115612d24575b506040519015158152f35b6301ffc9a760e01b14905082612d19565b6303a24d0760e21b81149150612d12565b346102b55760003660031901126102b557600b54612d63816130b1565b90612d716040519283612f72565b808252600b6000908152602091828401917f0175b7a638427703f0dbe7bb9bbf987a2551717b34e79f33b5b1008d1fa01db9835b838310612e0c5750505050604051918083019381845251809452604083019360408160051b85010192916000955b828710612de05785850386f35b909192938280612dfc600193603f198a82030186528851612ed2565b9601920196019592919092612dd3565b600486600192612e1e859a999a61380f565b815201920192019190959495612da5565b346102b55760403660031901126102b5576020612e56612e4d612e5e565b6024359061334d565b604051908152f35b600435906001600160a01b03821682036102b557565b602435906001600160a01b03821682036102b557565b60005b838110612e9d5750506000910152565b8181015183820152602001612e8d565b90602091612ec681518092818552858086019101612e8a565b601f01601f1916010190565b90606080612ee98451608085526080850190612ead565b936020810151602085015260408101516040850152015191015290565b604081019081106001600160401b03821117611e1a57604052565b60c081019081106001600160401b03821117611e1a57604052565b60a081019081106001600160401b03821117611e1a57604052565b608081019081106001600160401b03821117611e1a57604052565b90601f801991011681019081106001600160401b03821117611e1a57604052565b6001600160401b038111611e1a57601f01601f191660200190565b81601f820112156102b557803590612fc582612f93565b92612fd36040519485612f72565b828452602083830101116102b557816000926020809301838601378301015290565b9060038210156119bc5752565b9061300e818351612ff5565b60209182810151838301526130326040820151610100806040860152840190612ead565b926060820151606084016000905b83600283106130935750505050608082015190600060a085015b6002821061307b575050505060e09060a0600180821b039101511691015290565b828060019260ff87511681520194019101909261305a565b83516001600160a01b03168252928301926001929092019101613040565b6001600160401b038111611e1a5760051b60200190565b81601f820112156102b5578035916130df836130b1565b926130ed6040519485612f72565b808452602092838086019260051b8201019283116102b5578301905b828210613117575050505090565b81358152908301908301613109565b90815180825260208080930193019160005b828110613146575050505090565b835185529381019392810192600101613138565b9060018060a01b038251168152608080613183602085015160a0602086015260a0850190612ead565b9360408101516040850152606081015160608501520151151591015290565b600c548110156131c157600c6000526007602060002091020190600090565b634e487b7160e01b600052603260045260246000fd5b90600182811c92168015613207575b60208310146131f157565b634e487b7160e01b600052602260045260246000fd5b91607f16916131e6565b9060405191826000825492613225846131d7565b9081845260019485811690816000146132945750600114613251575b505061324f92500383612f72565b565b9093915060005260209081600020936000915b81831061327c57505061324f93508201013880613241565b85548884018501529485019487945091830191613264565b91505061324f94506020925060ff191682840152151560051b8201013880613241565b600b548110156131c157600b60005260206000209060021b0190600090565b600a548110156131c157600a6000526005602060002091020190600090565b6003546001600160a01b0316330361330957565b606460405162461bcd60e51b815260206004820152602060248201527f4f776e61626c653a2063616c6c6572206973206e6f7420746865206f776e65726044820152fd5b6001600160a01b031690811561337a57600052600060205260406000209060005260205260406000205490565b60405162461bcd60e51b815260206004820152602a60248201527f455243313135353a2061646472657373207a65726f206973206e6f742061207660448201526930b634b21037bbb732b960b11b6064820152608490fd5b60001981146133e15760010190565b634e487b7160e01b600052601160045260246000fd5b8051156131c15760200190565b80518210156131c15760209160051b010190565b1561341f57565b60405162461bcd60e51b815260206004820152602e60248201527f455243313135353a2063616c6c6572206973206e6f7420746f6b656e206f776e60448201526d195c881bdc88185c1c1c9bdd995960921b6064820152608490fd5b1561348257565b60405162461bcd60e51b815260206004820152602560248201527f455243313135353a207472616e7366657220746f20746865207a65726f206164604482015264647265737360d81b6064820152608490fd5b156134dc57565b60405162461bcd60e51b815260206004820152602a60248201527f455243313135353a20696e73756666696369656e742062616c616e636520666f60448201526939103a3930b739b332b960b11b6064820152608490fd5b919082018092116133e157565b908160209103126102b557516001600160e01b0319811681036102b55790565b60809060208152602860208201527f455243313135353a204552433131353552656365697665722072656a656374656040820152676420746f6b656e7360c01b60608201520190565b60009060033d116135b757565b905060046000803e60005160e01c90565b600060443d1061362557604051600319913d83016004833e81516001600160401b03918282113d60248401111761362857818401948551938411613630573d85010160208487010111613628575061362592910160200190612f72565b90565b949350505050565b50949350505050565b60809060208152603460208201527f455243313135353a207472616e7366657220746f206e6f6e2d455243313135356040820152732932b1b2b4bb32b91034b6b83632b6b2b73a32b960611b60608201520190565b6040519061369b82612f06565b60018252602036818401376136af826133f7565b5290565b6001600160a01b03166000908152600760205260409020546136d457600090565b600190565b906040516136e681612f3c565b608060ff6004839560018060a01b03815416855261370660018201613211565b602086015260028101546040860152600381015460608601520154161515910152565b608060405161373781612f3c565b600091818380935260606020820152826040820152826060820152015261375d826136b3565b1561378c576001600160a01b0390911681526007602052604090205461362590613786906132d6565b506136d9565b60405162461bcd60e51b8152602060048201526015602482015274506c6179657220646f65736e27742065786973742160581b6044820152606490fd5b6001600160a01b03166000908152600860205260409020546136d457600090565b604051906137f782612f57565b60006060838181528260208201528260408201520152565b9060405161381c81612f57565b60606003829461382b81613211565b845260018101546020850152600281015460408501520154910152565b6138506137ea565b5061385a816137c9565b156138865760018060a01b031660005260086020526136256138806040600020546132b7565b5061380f565b60405162461bcd60e51b815260206004820152601960248201527847616d6520746f6b656e20646f65736e27742065786973742160381b6044820152606490fd5b60206138e0918160405193828580945193849201612e8a565b8101600981520301902054156000146136d457600090565b604090600060a0835161390a81612f21565b8094838252836020830152606081830152805161392681612f06565b81368237606083015280519061393b82612f06565b36823760808201520152565b9060405161395481612f21565b809260ff81541660038110156119bc5782526001808201549060209182850152600290613982828501613211565b60408601526040519182600386016000915b8383106139eb57505050505090816139ae60a09493612f06565b60608501526040519060ff6005840154818116845260081c16908201526139d481612f06565b6080840152600601546000196001831b0116910152565b81546001600160a01b0316815291840191908401908601613994565b613a0f6138f8565b50613a19816138c7565b15613a4357613a3d610c176020613625938160405193828580945193849201612e8a565b50613947565b60405162461bcd60e51b8152602060048201526015602482015274426174746c6520646f65736e27742065786973742160581b6044820152606490fd5b818110613a8b575050565b60008155600101613a80565b15613a9e57565b60405162461bcd60e51b815260206004820152601c60248201527f506c6561736520526567697374657220506c61796572204669727374000000006044820152606490fd5b6080613aee33613729565b0151613f7557613b00612879336136b3565b613b086137ea565b50613b1233613fbf565b80600a0390600a82116133e1576040908151602090818101904282523360601b858201526034815260608101966001600160401b0392828910848a1117611e1a5760ff60646006928b8a528551902006160660ff8116918215613f5f575b60ff9250613b7d8a612f57565b89521696608082019188835260c060a08201918783520190888252600b5493600160401b851015611e1a57600195868601600b55613bba866132b7565b959095611e3057518051918211611e1a57613bd586546131d7565b601f8111613f2f575b508890601f8311600114613ec7576003959493929160009183613ebc575b505060001982871b1c191690881b1785555b518685015551600284015551910155336000526008835284600020558351613c3581612f06565b600381526203078360ec1b838201523315613e6e57613c538761368e565b82865191613c6083612f06565b81835285368185013781613c73846133f7565b526000825b613e2a575b50505050866000526000835284600020336000528352846000208054908382018092116133e1575584518781528284820152600033917fc3d58168c5ae7397731d063d5bbf3d657854427343f4c083240f7aacaa2d0f62883392a4333b613d22575b5050613cec6006546133d2565b60065582519485528401528201527fca8ab07e9ed17d119729fc652dd24df9d8430ca862dda4631925b5b4b99da36260603392a2565b8451838180613d6063f23a6e6160e01b95868352336004840152600060248401528c604484015287606484015260a0608484015260a4830190612ead565b03816000335af160009181613e0b575b50613de2575050613d7f6135aa565b6308c379a014613dae575b613d96575b3880613cdf565b825162461bcd60e51b81528061057260048201613639565b613db66135c8565b80613dc15750613d8a565b82610572865192839262461bcd60e51b845260048401526024830190612ead565b6001600160e01b031916149050613d8f57825162461bcd60e51b81528061057260048201613561565b613e23919250853d87116105fd576105ee8183612f72565b9038613d70565b8151811015613e695780613e41613e639286613404565b51613e4c8285613404565b516000526004895261070a8b600020918254613534565b82613c78565b613c7d565b845162461bcd60e51b815260048101849052602160248201527f455243313135353a206d696e7420746f20746865207a65726f206164647265736044820152607360f81b6064820152608490fd5b015190503880613bfc565b949392918891601f19821690886000528b6000209160005b8d828210613f19575050978360039910613f01575b505050811b018555613c0e565b015160001983891b60f8161c19169055388080613ef4565b838b015185558d96909401939283019201613edf565b613f5990876000528a600020601f850160051c8101918c8610611e1057601f0160051c0190613a80565b38613bde565b905060ff82146133e157600160ff920190613b70565b60405162461bcd60e51b8152602060048201526015602482015274506c6179657220697320696e206120626174746c6560581b6044820152606490fd5b919082039182116133e157565b600a9060405160208101914483524260408301526bffffffffffffffffffffffff199060601b16606082015260548152613ff881612f57565b5190200680156140055790565b50600590565b929190611e30578051926003808510156119bc5760ff1982541660ff80961617825560209081840151906001918285015560029081850160408701518051906001600160401b038211611e1a57819061406484546131d7565b601f81116141ab575b508790601f83116001146141495760009261413e575b505060001982851b1c191690851b1790555b606086015160005b8381106141225750505090608085015191600093845b8281106140f2575050505050600582015560a09091015160069190910180546001600160a01b0319166001600160a01b03929092169190911790559050565b909192826141168697848d85995116919060031b60ff811b9283911b169119161790565b960194939291016140b3565b81516001600160a01b031687820184015590850190840161409d565b015190503880614083565b90879350601f1983169185600052896000209260005b8b828210614195575050841161417d575b505050811b019055614095565b015160001983871b60f8161c19169055388080614170565b8385015186558b9790950194938401930161415f565b6141d5908560005289600020601f850160051c8101918b8610611e1057601f0160051c0190613a80565b3861406d565b906141e5826138c7565b1561420957612958610c17602061324f948160405193828580945193849201612e8a565b60405162461bcd60e51b815260206004820152601460248201527310985d1d1b1948191bd95cdb89dd08195e1a5cdd60621b6044820152606490fd5b61424d6138f8565b50815160038110156119bc5760021461436c576002825260018060a01b038091168060a08401527fae6e5eafb6cd1cb4b139e7a0b9140aa182ee7d50e99f50d660156f79212acbc060408401926142a58585516141db565b806060860181815151166000526007602052600a600261432b604060002054856020865101511660005260406000205490848461430860046142e6856132d6565b50019360ff199485815416905560196003614300836132d6565b5001556132d6565b5001556004614316836132d6565b500190815416905560196003614300836132d6565b500155518051821685810361436357506020015116935b519361435d6040519283926020845216956020830190612ead565b0390a390565b91505093614342565b60405162461bcd60e51b815260206004820152601460248201527310985d1d1b1948185b1c9958591e48195b99195960621b6044820152606490fd5b801561446d5780816000925b61445957506143c282612f93565b916143d06040519384612f72565b80835281601f196143e083612f93565b01916020923684870137905b6143f65750505090565b600019908082019081116133e1578093600a8082048094048111841515166133e15761442860ff928392860290613fb2565b166030019081116133e15785518210156131c15760f81b6001600160f81b03191660001a90850183015391826143ec565b91614465600a916133d2565b9204806143b4565b5060405161447a81612f06565b60018152600360fc1b60208201529056fea2646970667358221220bb28179dc3006e23a75b73957228751285d2e0deaccb6ef4ce745ce9ef1cfc5164736f6c63430008100033405787fa12a823e0f2b7631cc41b3ba8828b3321ca811111fa75cd3aa3bb5ace",
  "linkReferences": {},
  "deployedLinkReferences": {}
}